:02000000872D4A
:0E000600533083120313FD00FD0B0728080082
:10001400243083120313FC00B530FD00FD0B1028BF
:0A002400FC0B10280000000008008B
:0C002E00000000000000000000000800BE
:10003A0083120313EB1B23288611242886156B1BB6
:10004A002828061129280615EB1A2D2886102E288D
:10005A0086146B1A32280610332806145B183728C0
:10006A00061638280612861617208612EB193F281C
:10007A008611402886156B1944280611452806154D
:10008A00EB18492886104A2886146B184E28061041
:10009A004F2806145B18532806165428061286168B
:1000AA00172086125B1C5B280A205C2803200800A4
:0E00BA00F201F101F001F801F301003008003D
:1000C800FB14FB1F6E28FF30F300F200F100F00074
:0800D800FA0DF20CFF300800E4
:1000E0007B15FB1F7A280130F300F201F101F001CA
:0800F000FA0DF20CFF300800CC
:0800F800FA1FF21300300800AA
:10010000243083120313FD00FD0B84280000080037
:10011000A0017208031D9D287108F2007008F1000B
:10012000F001A0157208031D9D287108F200F1016D
:10013000A011201672080319AB282008F302031D32
:10014000031CAF280310F21BB328F00DF10DF20DC4
:10015000F30BA328AF280130FC005D20B628023045
:0E016000FC007020B6280430FC007C20080053
:10016E00831203135B106908EB001D205B1408005B
:0E017E00831203133C088A003B08820008002D
:10018C00831203136908F2007208F100F20A6A087C
:10019C00F000EA0A700884000008F000710884007E
:1001AC00700880007108840000080319DE28CA2832
:0601BC006908F0000800D4
:1001C20083120313FA017308031D7A147708031DBF
:1001D200FA147A0803192D29033A0319F8287A1810
:1001E200F528F61F2B292929F21F29292B29720804
:1001F2008039FA00F21376088039F6137A06031969
:1002020006297A08031929292B2977087302031969
:100212000D29031C212925297608720203191429A4
:10022200031C212925297508710203191B29031CA6
:10023200212925297408700203192D29031825295B
:10024200FA0803192B292929FA08031929292B2924
:100252000314080003100800031403150800080023
:1002620083120313FB017308031D770803198829FE
:1002720072087606FA007708F3077E30031C4529D8
:10028200F30203188B294829F302031C8E297208F2
:10029200F8007108FC007008FD00F817F61703104B
:1002A200F201F101F0011830A0007D1C62297408EE
:1002B200F00775080318750FF10776080318760F13
:1002C200F207F20CF10CF00CF80CFC0CFD0C031014
:1002D200A00B5629F21B7229F80DF00DF10DF20D4B
:1002E200F3037B1B701C8429F81F8429F00A03196D
:1002F200F10A0319F20A031D8429F20CF10CF00C25
:10030200F30A03198B29FA1FF213003090290130E6
:100312005D20902902306420902904307020000072
:020322000800D1
:1003240083120313FD01F8017008031900347406E5
:10033400FA00FA1BFD09FB01F41FA229F409F40ACF
:10034400F01FA629F009F00A70087404FA00FA1BD9
:10035400CA297408F802F00D700DF80D7408F80736
:10036400F00D0630FC00700DF80D74087018F802DA
:10037400701CF807F00DFC0BB529701CF8077B18EE
:10038400D829FD1F0034F009F00AF809F80A0034EE
:10039400F41FD529F01BD2297008F800F001C329F5
:1003A400F001F00A0034F009FB0AAB29F80A7408DA
:1003B4007802031DC329F801F00AF01FC329FF3492
:0203C40008002F
:0603C600FB15FF300800EA
:1003CC0083120313E701E8015C08E3005D08E40015
:1003DC005E08E5005F08E6006608FF3A031D002A88
:1003EC006508FF3A031D002A6408FF3A031D002A22
:1003FC006308FF3A031D0A2A6008E9002930EA0065
:10040C00C6200330F000E32B0130E100E51F192A70
:10041C0080306506F0007008E500E10A6008840091
:10042C002D308000E00A0030F0006606031D282AFB
:10043C0070086506031D282A70086406031D282A07
:10044C006308003A031D312A6008E9003530EA00E0
:10045C00C620F001E32B6608FF3A031D3F2A65080E
:10046C00003A031D3F2A6408003A031D3F2A630823
:10047C00003A031D492A6008E9003730EA00C6201B
:10048C006108F000E32B0030F4000030F500003080
:10049C00F6007F30F7006308F0006408F10065088F
:1004AC00F2006608F300E120013003180030F00080
:1004BC00700803197C2A6308F0006408F1006508D1
:1004CC00F2006608F3000030F4000030F500203034
:1004DC00F6008230F70031217008E3007108E40067
:1004EC007208E5007308E600E803492A0030F400BE
:1004FC000030F5002030F6008230F7006308F00081
:10050C006408F1006508F2006608F300E120013090
:10051C00031C0030F00070080319AF2A6308F000C8
:10052C006408F1006508F2006608F300CD30F400B1
:10053C00CC30F5004C30F6007B30F70031217008E0
:10054C00E3007108E4007208E5007308E600E80AAD
:10055C007C2AFF306305F800FF306405F9007F301A
:10056C006505FA0000306605FB007808F400790890
:10057C00F5007A08F6007B08F700F40DF50DF60D82
:10058C00F70D741000306305F00000306405F100C5
:10059C0000306505F200FF306605F3007008E300DB
:1005AC007108E4007208E5007308E600740863043F
:1005BC00F00075086404F10076086504F200770811
:1005CC006604F3007008E3007108E4007208E500AB
:1005DC007308E6007F306602F0007008E20001301C
:1005EC00E6007008F4006308F0006408F100650888
:1005FC00F2006608F300740803190B2BF00DF10DD3
:10060C00F20DF30D7010FF3E022B7008E300710821
:10061C00E4007208E5007308E6006608303EF0005E
:10062C006008840070088000E00A80306806F000E2
:10063C008030013A7002031C2C2B8030063AF000FB
:10064C00803068067002031C2C2B332B600884004E
:10065C002E308000E00A0130E7000630E20062082C
:10066C00003A0319912BE6016308F0006408F100CD
:10067C006508F2006608F300F00DF10DF20DF30DB4
:10068C007010F00DF10DF20DF30D70106308F00702
:10069C0064080318640FF10765080318650FF20767
:1006AC0066080318660FF3077008E3007108E4008E
:1006BC007208E5007308E6006308F0006408F100B6
:1006CC006508F2006608F300F00DF10DF20DF30D64
:1006DC0070107008E3007108E4007208E5007308FC
:1006EC00E6006608303EF000600884007008800068
:1006FC00E00A6708003A031D8F2BE8036808003AEC
:10070C00031D8F2B600884002E308000E00A01301E
:10071C00E700E203352BFF30600784000008303A15
:10072C00031D9A2BE003912BFF3060078400000817
:10073C002E3A031DA22BE0036808003A0319DF2BA5
:10074C006008840065308000E00A80306806F000A4
:10075C008030003A70020318BB2B600884002D30E7
:10076C008000E00A6808003CE8006808E20080307D
:10077C00093AF0008030680670020318D12B0A3059
:10078C00F4006208F00092213030F0076008840019
:10079C0070088000E00A0A30F4006208F000922130
:1007AC007808F0003030F007600884007008800092
:0C07BC00E00A600884008001F0010800E1
:1007C800C330831203139F05C0309F005C08F000FC
:1007D800F00D7010F00D701070089F042D09F000D6
:1007E800700883169F059F1783121F1480209F147B
:1007F8009F1C002C0000FC2B1F101E08F100F001AC
:0C08080083161E08F0040030F104080004
:10081400831203137408003A031D252C7508003A4B
:10082400031D252C7608003A031D252C7708003A71
:10083400031D252CFF30F000FF30F1007F30F20063
:10084400FF30F300C02C8312031377080319B42C70
:1008540073080319B72C720876068039FA00F21768
:10086400F617A0017208F8007108FC007008FD007A
:100874007408FD027508031C750FFC027608031C3E
:10088400760FF802F801FC01FD01031C502C031043
:10089400F20CF10CF00CF80C0130A0007708F30214
:1008A400031C5A2C7E302007F3070318BA2C5F2C44
:1008B4007E302007F307031CBD2C1830FA07FD0D0A
:1008C400FC0DF80DF00DF10DF20DA00D7408F00201
:1008D4007508031C750FF1027608031C760FF202EB
:1008E400760DA004201C782C7D14832C7408F0074A
:1008F40075080318750FF10776080318760AF207CE
:100904007D10FA031F307A05031D612C7B1B7D1CAF
:10091400AA2C0310F00DF10DF20DA00D7408F002D5
:100924007508031C750FF1027608031C760FF2029A
:10093400760D20040139FD070318FC0A0319F80A8F
:10094400031DAA2CF80CFC0CFD0CF30A0319BA2C99
:10095400FA1FF8137808F2007C08F1007D08F00013
:100964000030BF2C0130E321BF2C02305D20BF2CAE
:0E09740004306420BF2C083070200000080002
:10098200D32C803083120313DC00E62CC030DC0051
:10099200E62C9430DC00E62CD430DC00E62C8030EF
:1009A200DC00E62C831203135C08013A0319C22C03
:1009B2005C08023A0319C72C5C08033A0319CA2CD3
:1009C2005C08043A0319CD2CD02C5D03F0005C08BE
:1009D200F0077008DC007008EB001D205B10DF01DF
:1009E2005F085E07840000080319FF2C5F085E079A
:1009F20084000008E900B720DF0AF12C5B1408002C
:100A0200831603138612061206108610061186112B
:100A120083128612061286110611861006100A200B
:100A22000A200A20861406148616172086120A2027
:100A32008616172086120A208616172086120A208A
:100A420006108616172086120A208616172086128E
:100A5200861086158616172086120A20861106141D
:100A620086161720861206108616172086120A206E
:100A720086161720861206148616172086120A205A
:100A82000610861617208612861506158614061479
:0C0A92008616172086120A205B1408004C
:100A9E00FF3083120313BD00FF30BE00FF30BF00D6
:100AAE00FF30C3309F05C0309F002D09F000700845
:0C0ABE0083169F059F1783121F14080069
:100ACA00831203137008F8007108F000F101F201B3
:100ADA00F301FB01FC019630F300FA017008F10002
:0C0AEA007808F000F801F20188200800F4
:100AF600BF208A110A128000840ABB0A0319BC0AA5
:080B0600F003031D7B2D080024
:100B0E003E26831603178901013088000130031336
:100B1E0085004F2501258316880183128801013037
:100B2E00EB001D200C30EB001D200130DC000630E8
:100B3E00DD002130DE00C1240230DC000130DD009A
:100B4E002E30DE00C124DC01E42365257008C000D0
:100B5E007108C1007208C2007308C3000030F400AF
:100B6E000030F5002030F6008130F70031210030E2
:100B7E00F4000030F5000030F6008930F7000A244A
:100B8E007008C4007108C5007208C6007308C7005B
:100B9E000030F4000030F5004830F6008530F700E4
:100BAE0031217008D7007108D8007208D900730877
:100BBE00DA007008DC007108DD007208DE007308D0
:100BCE00DF004830E000E6210230DC000730DD00B7
:100BDE004830DE00C1245708F4005808F5005908C3
:100BEE00F6005A08F7000030F0000030F1000C302B
:100BFE00F2008430F300E120013003180030F000E1
:100C0E00700803190D2E013088000F2E0230880057
:100C1E000330FB008A30FC005530FD00FD0B152E15
:100C2E00FC0B152EFB0B152E00000000AA2D1E2E00
:100C7C00213084001A3083120313F0002430BB009F
:080C8C000630BC007B250800C6
:100C480043346F346E34743472346F346C3400341B
:080C58004E3461344E340034C7
:020C600030342E
:0E0C6200543465346D3470343A342034003428
:040C700030340034E8
:080C740049344E3446340034CB
:04400E00E2200007A5
:00000001FF
