:02000000432893
:0E0006008312031323088A00220882000800D8
:1000140003208A110A128000840AA20A0319A30A7F
:08002400F003031D0A28080087
:10002C00831603178C1C1C2800001628831203133C
:10003C00240803178D000313250803178C0083165F
:10004C008C130C150B08F0008B1355308D00AA3057
:10005C008D008C14F01B34288B1335288B170C1146
:02006C0008008A
:10006E0083120313240803178D0083168C130C14AC
:08007E0083120C08F0000800D9
:1000860083120313A001A101831608108312A40191
:10009600372070080313A000A10108140D30FB00DF
:1000A600AF30FC00B630FD00FD0B5728FC0B57287F
:1000B600FB0B5728000008100D30FB00AF30FC008A
:1000C600B630FD00FD0B6528FC0B6528FB0B65288B
:1000D6000000A00A0319A10AA4012008A500162001
:1000E6008030831203132106F00080307002031D56
:0C00F6007E2805302002031C50288028C2
:04400E00E2200007A5
:020000040000FA
:1042000000000000000000000000000000000000AE
:10421000000000000000000000000000000000009E
:10422000000000000000000000000000000000008E
:10423000000000000000000000000000000000007E
:10424000000000000000000000000000000000006E
:10425000000000000000000000000000000000005E
:10426000000000000000000000000000000000004E
:10427000000000000000000000000000000000003E
:10428000000000000000000000000000000000002E
:10429000000000000000000000000000000000001E
:1042A000000000000000000000000000000000000E
:1042B00000000000000000000000000000000000FE
:1042C00000000000000000000000000000000000EE
:1042D00000000000000000000000000000000000DE
:1042E00000000000000000000000000000000000CE
:1042F00000000000000000000000000000000000BE
:1043000000000000000000000000000000000000AD
:10431000000000000000000000000000000000009D
:10432000000000000000000000000000000000008D
:10433000000000000000000000000000000000007D
:10434000000000000000000000000000000000006D
:10435000000000000000000000000000000000005D
:10436000000000000000000000000000000000004D
:10437000000000000000000000000000000000003D
:10438000000000000000000000000000000000002D
:10439000000000000000000000000000000000001D
:1043A000000000000000000000000000000000000D
:1043B00000000000000000000000000000000000FD
:1043C00000000000000000000000000000000000ED
:1043D00000000000000000000000000000000000DD
:1043E00000000000000000000000000000000000CD
:1043F00000000000000000000000000000000000BD
:00000001FF

