:020000002528B1
:100006008316031398169030831298008316871769
:10001600071383128C1E12281A08F0000C280800F9
:10002600831203131A08F100981C1B2818121816BD
:060036007108F000080053
:0E003C000030831203138C1A0130F00008000C
:10004A00831603138801831288018130831699006D
:10005A00181503200330FB008A30FC005530FD00E0
:10006A00FD0B3528FC0B3528FB0B3528000000005A
:10007A001E207008003C0318592813207008A0009D
:10008A007008413A031D4A2808142008423A031D01
:10009A004F2808102008433A031D542888142008C2
:0C00AA00443A031D592888103D285A28AC
:04400E00E2200007A5
:00000001FF
