:02000000622973
:1000060083120313FB01FA01F9018030F800F10CA9
:10001600F00C031C17287408F90775080318750FE8
:10002600FA070318FB0A0310F01F1F287408FA07C3
:1000360075080318750FFB07FB0CFA0CF90CF80C86
:10004600031C0A287B08F3007A08F2007908F100FD
:060056007808F00008002C
:0E005C008312031327088A002608820008007A
:10006A00710DF80DF90D7408F8027508031C750F67
:10007A00F902F00DF10D0F30FC00710DF80DF90DBC
:10008A007408701C4E28F8027508031C750FF902D3
:10009A005328F80775080318750FF907F00DF10DC5
:1000AA00FC0B422870185F287408F80775080318B3
:0800BA00750FF90700000800B2
:1000C200243083120313FD00FD0B65280000080095
:1000D200831603130711831212150C3097040800BC
:1000E200831203137408003A031D80287508003A2E
:1000F200031D8028FF30F0007F30F100D9288312E1
:100102000313FD01F901F8017108700403190034A9
:1001120071087506FA00FA1BFD09FB01F51F962806
:10012200F409F509F40A0319F50AF11F9D28F009EB
:10013200F109F00A0319F10A71087504FA00FA1BB1
:10014200B22835207B18C528FD1F0034F009F109BB
:10015200F00A0319F10AF809F909F80A0319F90A68
:100162000034F51FC128F11BBD287108F900700881
:10017200F800F101F001A528F101F001F00A0034C4
:10018200F109F009FB0AA228F80A0319F90A74080E
:100192007802031DA52875087902031DA528F90117
:1001A200F801F00A0319F10AF11FA5280000FF3433
:0201B200080043
:1001B400C330831203139F05C0309F002A08F00048
:1001C400F00D7010F00D701070089F042009F000FD
:1001D400700883169F059F1783121F1461209F14B4
:1001E4009F1CF6280000F2281F101E08F100F001E1
:0C01F40083161E08F0040030F10408001F
:0C020000831203139501171297120800D7
:10020C002E208A110A128000840AA60A0319A70A52
:08021C00F003031D0629080090
:10022400831603131208013EF000F1010318F10ACA
:1002340083122A08F400F50103200630F200700846
:10024400F4007108F500720803192D29F50CF40C5B
:10025400F513FF3E26290430F1007408F0007108FC
:1002640003193829F00D7010FF3E32293030700523
:10027400F3007408F0007508F100F10CF00CF113B0
:10028400F10CF00CF113700895000F30970573080A
:0402940097040800C3
:10029800FF3083120313A300FF30A400FF30A50032
:1002A800FF30C3309F05C0309F002009F000700860
:0C02B80083169F059F1783121F14080077
:1002C4009A210430831603138800071183128801CE
:1002D4000711831605140130031788004C211214EA
:1002E40092107C308316920000216920AA01DA2042
:1002F40070088312A8007108A9000430F4000030CB
:10030400F50071207008A1007108A2007008AA000D
:100314001221081D9029013088009229023088009A
:040324007829932978
:1003340020308400013083120313F0009930A600AA
:080344000130A70006210800AA
:02033200303465
:04400E00E2200007A5
:00000001FF
