:02000000DD2DF4
:0C000600000000000000000000000800E6
:0E001200533083120313FD00FD0B0D28080070
:10002000243083120313FC00B530FD00FD0B1628AD
:0A003000FC0B162800000000080079
:0E003A00F201F101F001F801F30100300800BD
:10004800FB14FB1F2E28FF30F300F200F100F00034
:08005800FA0DF20CFF30080064
:1000600083160313C11B3728831286113928831284
:1000700086158316411B3F288312061141288312DF
:1000800006158316C11A4728831286104928831241
:1000900086148316411A4F288312061051288312A2
:1000A00006146F18552806165628061286160320C1
:1000B00086128316C1195F28831286116128831264
:1000C0008615831641196728831206116928831241
:1000D00006158316C1186F288312861071288312A3
:1000E0008614831641187728831206107928831204
:1000F00006146F187D2806167E2806128616032021
:0E01000086126F1C8528102086280920080012
:10010E007B15FB1F91280130F300F201F101F00184
:08011E00FA0DF20CFF3008009D
:08012600FA1FF213003008007B
:10012E00831203136F1083163F08C10030206F1423
:02013E000800B7
:10014000831603133F08F2007208F100F20A400818
:10015000F000C00A700884000008F00071088400F4
:10016000700880007108840000080319B828A428CA
:060170003F08F00008004A
:1001760083120313FB017308031D77080319122961
:1001860072087606FA007708F3077E30031CCF283C
:10019600F30203181529D228F302031C1829720842
:1001A600F8007108FC007008FD00F817F617031038
:1001B600F201F101F0011830A0007D1CEC28740852
:1001C600F00775080318750FF10776080318760F00
:1001D600F207F20CF10CF00CF80CFC0CFD0C031001
:1001E600A00BE028F21BFC28F80DF00DF10DF20D26
:1001F600F3037B1B701C0E29F81F0E29F00A031946
:10020600F10A0319F20A031D0E29F20CF10CF00C87
:10021600F30A03191529FA1FF21300301A290130BF
:100226001D201A29023024201A29043087200000B4
:020236000800BE
:1002380083120313FA017308031D7A147708031D48
:10024800FA147A0803196829033A031933297A1822
:100258003029F61F66296429F21F64296629720865
:100268008039FA00F21376088039F6137A060319F2
:1002780041297A0803196429662977087302031942
:100288004829031C5C2960297608720203194F2942
:10029800031C5C2960297508710203195629031C7F
:1002A8005C296029740870020319682903186029F9
:1002B800FA08031966296429FA08031964296629C2
:1002C80003140800031008000314031508000800AD
:1002D80083120313FD01F801700803190034740632
:1002E800FA00FA1BFD09FB01F41F7C29F409F40A42
:1002F800F01F8029F009F00A70087404FA00FA1B4C
:10030800A4297408F802F00D700DF80D7408F807A8
:10031800F00D0630FC00700DF80D74087018F80226
:10032800701CF807F00DFC0B8F29701CF8077B1860
:10033800B229FD1F0034F009F00AF809F80A003460
:10034800F41FAF29F01BAC297008F800F0019D29B3
:10035800F001F00A0034F009FB0A8529F80A74084C
:100368007802031D9D29F801F00AF01F9D29FF342A
:0203780008007B
:0E037A00831203136E088A006D0882000800CB
:10038800A0017208031DD9297108F2007008F10054
:10039800F001A0157208031DD9297108F200F101B6
:1003A800A011201672080319E7292008F302031D7B
:1003B800031CEB290310F21BEF29F00DF10DF20DD0
:1003C800F30BDF29EB290130FC001D20F229023054
:0E03D800FC008720F2290430FC00932008006E
:0603E600FB15FF300800CA
:1003EC00243083120313FD00FD0BFA2900000800D2
:1003FC0083160313BD01BE013208B9003308BA00DD
:10040C003408BB003508BC003C08FF3A031D182A11
:10041C003B08FF3A031D182A3A08FF3A031D182A15
:10042C003908FF3A031D222A3608BF003230C000BB
:10043C00A0200330F000032C0130B700BB1F312A81
:10044C0080303B06F0007008BB00B70A3608840009
:10045C002D308000B60A0030F0003C06031D402A07
:10046C0070083B06031D402A70083A06031D402AFB
:10047C003908003A031D492A3608BF003730C0003E
:10048C00A020F001032C3C08FF3A031D572A3B081F
:10049C00003A031D572A3A08003A031D572A390817
:1004AC00003A031D612A3608BF003930C000A02075
:1004BC003708F000032C0030F4000030F500003059
:1004CC00F6007F30F7003908F0003A08F1003B08DD
:1004DC00F2003C08F3001C21013003180030F0003E
:1004EC0070080319962A83163908F0003A08F100AF
:1004FC003B08F2003C08F3000030F4000030F5003B
:10050C002030F6008230F700BB2070088316B9004B
:10051C007108BA007208BB007308BC00BE03612AE4
:10052C0083160030F4000030F5002030F6008230E5
:10053C00F7003908F0003A08F1003B08F2003C08DB
:10054C00F3001C210130031C0030F000700803196B
:10055C00CC2A83163908F0003A08F1003B08F20067
:10056C003C08F300CD30F400CC30F5004C30F600F4
:10057C007B30F700BB2070088316B9007108BA00F5
:10058C007208BB007308BC00BE0A962A8316FF30A3
:10059C003905F800FF303A05F9007F303B05FA00C9
:1005AC0000303C05FB007808F4007908F5007A0867
:1005BC00F6007B08F700F40DF50DF60DF70D741031
:1005CC0000303905F00000303A05F10000303B05F1
:1005DC00F200FF303C05F3007008B9007108BA0056
:1005EC007208BB007308BC0074083904F00075086D
:1005FC003A04F10076083B04F20077083C04F3005F
:10060C007008B9007108BA007208BB007308BC000E
:10061C007F303C02F0007008B8000130BC0070085C
:10062C00F4003908F0003A08F1003B08F2003C08ED
:10063C00F30074080319292BF00DF10DF20DF30DD5
:10064C007010FF3E202B7008B9007108BA007208B8
:10065C00BB007308BC003C08303EF0003608840038
:10066C0070088000B60A80303E06F0008030013AF7
:10067C007002031C4A2B8030063AF00080303E0694
:10068C007002031C4A2B512B360884002E3080003C
:10069C00B60A0130BD000630B8003808003A03191C
:1006AC00AF2BBC013908F0003A08F1003B08F2000E
:1006BC003C08F300F00DF10DF20DF30D7010F00D80
:1006CC00F10DF20DF30D70103908F0073A0803180C
:1006DC003A0FF1073B0803183B0FF2073C080318CD
:1006EC003C0FF3077008B9007108BA007208BB0020
:1006FC007308BC003908F0003A08F1003B08F2001E
:10070C003C08F300F00DF10DF20DF30D70107008B4
:10071C00B9007108BA007208BB007308BC003C0831
:10072C00303EF0003608840070088000B60A3D08A0
:10073C00003A031DAD2BBE033E08003A031DAD2B42
:10074C00360884002E308000B60A0130BD00B80394
:10075C00532BFF30360784000008303A031DB82BAA
:10076C00B603AF2BFF303607840000082E3A031D6A
:10077C00C02BB6033E08003A0319FF2B3608840041
:10078C0065308000B60A80303E06F0008030003ABA
:10079C0070020318D92B360884002D308000B60A5D
:1007AC003E08003CBE003E08B8008030093AF0001C
:1007BC0080303E0670020318F02B0A30F400380823
:1007CC00F0006C213030F007831636088400700876
:1007DC008000B60A0A30F4003808F0006C21780862
:1007EC00F0003030F0078316360884007008800063
:0C07FC00B60A360884008001F0010800F5
:10080800831203137408003A031D1F2C7508003A5D
:10081800031D1F2C7608003A031D1F2C7708003A89
:10082800031D1F2CFF30F000FF30F1007F30F20075
:10083800FF30F300BA2C8312031377080319AE2C88
:1008480073080319B12C720876068039FA00F2177A
:10085800F617A0017208F8007108FC007008FD0086
:100868007408FD027508031C750FFC027608031C4A
:10087800760FF802F801FC01FD01031C4A2C031055
:10088800F20CF10CF00CF80C0130A0007708F30220
:10089800031C542C7E302007F3070318B42C592C62
:1008A8007E302007F307031CB72C1830FA07FD0D1C
:1008B800FC0DF80DF00DF10DF20DA00D7408F0020D
:1008C8007508031C750FF1027608031C760FF202F7
:1008D800760DA004201C722C7D147D2C7408F00762
:1008E80075080318750FF10776080318760AF207DA
:1008F8007D10FA031F307A05031D5B2C7B1B7D1CC2
:10090800A42C0310F00DF10DF20DA00D7408F002E7
:100918007508031C750FF1027608031C760FF202A6
:10092800760D20040139FD070318FC0A0319F80A9B
:10093800031DA42CF80CFC0CFD0CF30A0319B42CB1
:10094800FA1FF8137808F2007C08F1007D08F0001F
:100958000030B92C0130F321B92C02301D20B92CFC
:0E09680004302420B92C08308720000008003D
:10097600831603133208831203178D0083168C1314
:0A0986000C1483120C08F0000800A6
:10099000C330831203139F05C0309F0083163208B3
:1009A000F000F00D7010F00D7010700883129F04AD
:1009B0003609F000700883169F059F1783121F14D5
:1009C000F6219F149F1CE62C0000E22C1F101E082D
:1009D000F100F00183161E08F0040030F104080055
:1009E000831603178C1CF62C0000F02C031332081E
:1009F000831203178D008316031333088312031722
:100A00008C0083168C130C150B08F0008B135530DB
:100A10008D00AA308D008C14F01B102D8B13112D1E
:060A20008B170C11080009
:100A2600BD218A110A128000840AED0A0319EE0A12
:080A3600F003031D132D08005D
:100A3E00FF3083160313AF00FF30B000FF30B1005C
:100A4E00FF30C33083129F05C0309F003609F0007F
:0E0A5E00700883169F059F1783121F1408004F
:100A6C00482D803083160313B2005B2DC030B200CA
:100A7C005B2D9430B2005B2DD430B2005B2D8030F6
:100A8C00B2005B2D831603133208013A0319372D7C
:100A9C003208023A03193C2D3208033A03193F2D50
:100AAC003208043A0319422D452D3303F000320865
:100ABC00F0077008B2007008C10030206F10831668
:100ACC00B50135083407840000080319762D350864
:100ADC00340784000008BF0097208316B50A672DE1
:060AEC0083126F140800E4
:100AF200831203137008F8007108F000F101F2018B
:100B0200F301FB01FC019630F300FA017008F100D9
:0C0B12007808F000F801F201C42108008E
:100B1E00831603138612061206108610061186110E
:100B2E0083128612061286110611861006101020E8
:100B3E00102010208614061486160320861210200C
:100B4E008616032086121020861603208612102089
:100B5E000610861603208612102086160320861293
:100B6E00861086158616032086121020861106140E
:100B7E008616032086120610861603208612102073
:100B8E00861603208612061486160320861210205F
:100B9E000610861603208612861506158614061470
:0C0BAE0086160320861210206F14080029
:100BBA00F0268316031789010130880001300313D8
:100BCA0085001F258F25831688018312880101302D
:100BDA008316C10030200C308316C100302001304A
:100BEA008316B2000630B3002A30B400362502302C
:100BFA008316B2000130B3002330B40036258316C1
:100C0A00B201BB2470080313A100A201A10A0319AF
:100C1A00A20A8316B201831221088316B300F024B4
:100C2A008030831203132206F00080307002031D05
:100C3A00202E053021020318982E8316B201C824EB
:100C4A0079257008E1007108E2007208E300730870
:100C5A00E4000030F4000030F5002030F600813066
:100C6A00F700BB200030F4000030F5000030F60039
:100C7A008930F70004247008E9007108EA00720854
:100C8A00EB007308EC000030F4000030F500483047
:100C9A00F6008530F700BB207008E5007108E60011
:100CAA007208E7007308E80070088316B20071083A
:100CBA00B3007208B4007308B500A030B600FE2174
:100CCA000230B2000730B300A030B4003625650800
:100CDA00F4006608F5006708F6006808F7000030B7
:100CEA00F0000030F1000C30F2008430F3001C21D7
:100CFA00013003180030F00070080319872E013004
:100D0A008800892E023088000330FB008A30FC00FC
:100D1A005530FD00FD0B8F2EFC0B8F2EFB0B8F2EFB
:100D2A0000000000152E01308316B2000130B30016
:100D3A004F30B400362502308316B2000130B300BA
:0A0D4A003D30B4003625A82EA92E76
:100DE00021308400403083120313F000AF30ED0057
:080DF0000630EE001325080097
:040D5E000034003429
:0E0D6200543465346D3470343A342034003427
:100D700043346F346E34743472346F346C340034F2
:080D80004E3461344E3400349E
:020D8800303405
:040D8A0030340034CD
:080D8E0049344E3446340034B0
:100D9600203420345434653472346D3469346E34FE
:100DA60061346434613420342034203420342034D7
:040DB60020340034B1
:100DBA00563465347234733469346F346E34203483
:100DCA006434653420347034723475346534623472
:040DDA00613400344C
:04400E00E2200007A5
:020000040000FA
:1042000000000000000000000000000000000000AE
:10421000000000000000000000000000000000009E
:10422000000000000000000000000000000000008E
:10423000000000000000000000000000000000007E
:10424000000000000000000000000000000000006E
:10425000000000000000000000000000000000005E
:10426000000000000000000000000000000000004E
:10427000000000000000000000000000000000003E
:10428000000000000000000000000000000000002E
:10429000000000000000000000000000000000001E
:1042A000000000000000000000000000000000000E
:1042B00000000000000000000000000000000000FE
:1042C00000000000000000000000000000000000EE
:1042D00000000000000000000000000000000000DE
:1042E00000000000000000000000000000000000CE
:1042F00000000000000000000000000000000000BE
:1043000000000000000000000000000000000000AD
:10431000000000000000000000000000000000009D
:10432000000000000000000000000000000000008D
:10433000000000000000000000000000000000007D
:10434000000000000000000000000000000000006D
:10435000000000000000000000000000000000005D
:10436000000000000000000000000000000000004D
:10437000000000000000000000000000000000003D
:10438000000000000000000000000000000000002D
:10439000000000000000000000000000000000001D
:1043A000000000000000000000000000000000000D
:1043B00000000000000000000000000000000000FD
:1043C00000000000000000000000000000000000ED
:1043D00000000000000000000000000000000000DD
:1043E00000000000000000000000000000000000CD
:1043F00000000000000000000000000000000000BD
:00000001FF

